:100000000C9446000C9465000C9465000C946500FB
:100010000C9465000C9465000C9465000C946500CC
:100020000C9465000C9465000C9465000C946500BC
:100030000C9465000C9465000C9465000C946500AC
:100040000C9465000C9465000C9465000C9465009C
:100050000C9465000C9465000C9465000C9465008C
:100060000C9465000C9465000C9465000C9465007C
:100070000C9465000C9465000C9465000C9465006C
:100080000C9465000C9465000C94650011241FBE4F
:10009000CFEFD0E1DEBFCDBF11E0A0E0B1E0E2E103
:1000A000F1E000E00BBF02C007900D92A030B10755
:1000B000D9F711E0A0E0B1E001C01D92A030B10776
:1000C000E1F70E9467000C9487000C9400008FEF0A
:1000D00087BB81BB82BB21E068EA71E607C0822F43
:1000E000809588BBCB010197F1F7220F2223B9F746
:1000F00040E828E030E0842F809588BBCB01019751
:10010000F1F7469521503040B1F721E0E8CFF8945F
:02011000FFCF1F
:00000001FF
