:100000000C9446000C9465000C9465000C946500FB
:100010000C9465000C9465000C9465000C946500CC
:100020000C9465000C9465000C9465000C946500BC
:100030000C9465000C9465000C9465000C946500AC
:100040000C9465000C9465000C9465000C9465009C
:100050000C9465000C9465000C9465000C9465008C
:100060000C9465000C9465000C9465000C9465007C
:100070000C9465000C9465000C9465000C9465006C
:100080000C9465000C9465000C94650011241FBE4F
:10009000CFEFD0E1DEBFCDBF11E0A0E0B1E0E8E2FC
:1000A000F1E000E00BBF02C007900D92A031B10754
:1000B000D9F711E0A0E1B1E001C01D92A031B10774
:1000C000E1F70E947E000C9492000C940000FC0169
:1000D000E050FF4F808182BB089522E048EA51E65C
:1000E00005C022BB220FCA010197F1F7822F90E0D1
:1000F0008F779070892BA9F722E0F8CF8FEF84BB20
:1001000061E028EA31E652E044E065BBC9010197AD
:10011000F1F755BBC9010197F1F745BBC90101973B
:08012000F1F7F3CFF894FFCFD3
:100128007E0CB69ECCDAFA0EFEDE0000000000005F
:00000001FF
